:0400000084EF00F099
:100008004882FACF1EF0FBCF1FF0E1CF20F0E2CFFD
:1000180021F0D9CF22F0DACF23F0F2AA16EF00F0C0
:1000280018EF00F023EF00F0F2A41DEF00F01FEF2F
:1000380000F023EF00F0B2EC0FF076EF00F0F2AC36
:1000480028EF00F02AEF00F076EF00F09DA82FEFE0
:1000580000F031EF00F047EF00F09EA836EF00F017
:1000680038EF00F047EF00F002D845EF00F0050048
:10007800FA6E0001F151FD6EF251FE6EFF6AFA5000
:10008800120076EF00F09DAA4CEF00F04EEF00F062
:1000980064EF00F09EAA53EF00F055EF00F064EF14
:1000A80000F002D862EF00F00500FA6E0001EF518F
:1000B800FD6EF051FE6EFF6AFA50120076EF00F006
:1000C8009DA269EF00F06BEF00F076EF00F09EA2C2
:1000D80070EF00F072EF00F076EF00F05DEC10F0DA
:1000E80076EF00F023C0DAFF22C0D9FF21C0E2FF7B
:1000F80020C0E1FF1FC0FBFF1EC0FAFF489211009D
:0401080014EF0FF0F1
:1010000000CC22A422942294151617C022E819724B
:10101000236A2362235A2352234A234223B42234CD
:101020001C00000E146E000E156E000E166E020EE1
:10103000176E030E95EC0FF001C01AF002C01BF002
:101040001050116E126A1A50115C1B501258D8B011
:101050002CEF08F02EEF08F033EF08F0020E39EC19
:1010600011F0CBEF08F0050E95EC0FF001C018F071
:1010700002C019F043EF08F0F80E1A241A6EFF0EA2
:101080001B201B6E142A1B5007E1080E1A5CD8B0F7
:101090004CEF08F04EEF08F03CEF08F014500E242F
:1010A000D96E000E0F20DA6EDF50136EA9EF08F034
:1010B0001806D8A019061AC011F0010E126E112AD6
:1010C00064EF08F0D8901236112E62EF08F012503B
:1010D00013140009D8B46FEF08F071EF08F07FEF38
:1010E00008F016C011F0010E126E112A7AEF08F006
:1010F000D8901236112E78EF08F012501512162AD9
:101100001A4A1B2A080E1618D8A489EF08F08BEF8C
:1011100008F098EF08F0000E166E172A8D0E1724AF
:10112000D96EDA6A000EDA2215C0DFFF000E156EE6
:10113000080E1A181B10D8A4A0EF08F0A2EF08F0B0
:10114000A9EF08F0000E1B6E000E1A6E142A4EEF67
:1011500008F018501910D8A4B0EF08F0B2EF08F05A
:1011600058EF08F01650D8B4B8EF08F0BAEF08F00E
:10117000C3EF08F0172A8D0E1724D96EDA6A000E15
:10118000DA2215C0DFFF1750FE0F00018F6F172AFC
:10119000175035EC0FF01200000E3C6E0FEF09F007
:1011A0003E0E0E6E000E0F6E0A0E106E11EC08F061
:1011B0004DEF09F0400E0E6E000E0F6E0A0E106E0F
:1011C00011EC08F04DEF09F0AB0E0E6E000E0F6E35
:1011D0000A0E106E000E116E52EC09F04DEF09F080
:1011E000BF0E0E6E000E0F6E0A0E106E010E116E07
:1011F00052EC09F04DEF09F072EC0DF04DEF09F0F3
:101200007EEC0EF04DEF09F000F04DEF09F000F02C
:101210004DEF09F0010E39EC11F04DEF09F000012E
:101220008E511C6E1D6A1D50000AD8B41AEF09F0C9
:101230000AEF09F01C50010AD8B4D0EF08F0030AF5
:10124000D8B4DAEF08F0010AD8B4E4EF08F0070ADE
:10125000D8B4F0EF08F0010AD8B4FCEF08F0030AA4
:10126000D8B400EF09F0090AD8B404EF09F01F0A56
:10127000D8B407EF09F0050AD8B44DEF09F0030A16
:10128000D8B44DEF09F0010AD8B44DEF09F00F0AB8
:10129000D8B44DEF09F00AEF09F0010E00018C6F90
:1012A0003B941200040E1A6E030E95EC0FF001C071
:1012B00016F002C017F01050126E136A1650125C2E
:1012C00017501358D8B067EF09F069EF09F06EEFC7
:1012D00009F0020E39EC11F0D5EF09F0050E95EC8E
:1012E0000FF001C018F002C019F0185018240001C6
:1012F0008F6F030E1A6EC9EF09F01104D8A483EFA3
:1013000009F085EF09F094EF09F0D8901634D96E02
:101310001734DA6EBF0ED926000EDA22DECF14F0B3
:10132000DDCF15F0A1EF09F0D8901634D96E17343F
:10133000DA6EAB0ED926000EDA22DECF14F0DDCF46
:1013400015F0164A172A140E0E6E000E0F6E20EEC0
:1013500001F00E50D9260F50DA228D0E1A24E16EBC
:10136000E26A000EE222DFCFE7FF1A2A0EC0D9FFA1
:101370000FC0DAFF8D0E1A24E16EE26A000EE2223F
:10138000DFCFE7FF1A2AFF0E1824186EFF0E192070
:10139000196E18501910D8A4D0EF09F0D2EF09F047
:1013A0007DEF09F01A5035EC0FF01200E1EC10F06F
:1013B000E60E0001D36F180ED46F80EC11F0CE0E44
:1013C0000001D36F230ED46F7BEC11F0F28EF28C00
:1013D000730E0101096FF6C003F1F7C004F1F8C004
:1013E00005F1F3C006F1F4C007F1F5C008F180A4DF
:1013F000FCEF09F0FEEF09F030EF0AF001010AB14D
:1014000004EF0AF006EF0AF030EF0AF08980030ECD
:101410000001E46F010EE56F000EE76F030EE66F4B
:10142000010109514EEC0EF0060E0001E46F010EB1
:10143000E56F000EE76F010EE66F680E4EEC0EF0E2
:10144000000E0001E46F010EE56F000EE76F030E62
:10145000E66F680EA9EC0EF001010A8141EF0AF077
:1014600080B435EF0AF037EF0AF041EF0AF00101DE
:101470000AA13DEF0AF03FEF0AF041EF0AF0899030
:101480000A91ACA246EF0AF048EF0AF0F7EF09F034
:1014900000018C51D8B44FEF0AF051EF0AF0F7EF8A
:1014A00009F0CDEC0FF0F7EF09F084EF00F0076ED4
:1014B000000E086E000E096E62EF0AF00750F80F7A
:1014C000076E082A080E076068EF0AF06AEF0AF054
:1014D0005EEF0AF008500224D96E000E0320DA6E87
:1014E000DF50096E0A0E0418D8A479EF0AF07BEFDA
:1014F0000AF0ACEF0AF00104D8A481EF0AF083EF00
:101500000AF093EF0AF007C005F0010E066E052AF7
:101510008CEF0AF0D8900636052E8AEF0AF00650B6
:101520000912A2EF0AF007C005F0010E066E052AA7
:101530009CEF0AF0D8900636052E9AEF0AF0065076
:10154000FF0A091608500224D96E000E0320DA6E35
:1015500009C0DFFFC8EF0AF007C005F0010E066EF4
:10156000052AB5EF0AF0D8900636052EB3EF0AF03B
:10157000065009140009D8B4C0EF0AF0C2EF0AF00F
:10158000C6EF0AF0010E076EC8EF0AF0000E076EF4
:10159000075012002FEC11F00009D8B4D2EF0AF076
:1015A000D4EF0AF010EF0BF0E2EF0AF0B9EC11F013
:1015B0002CEF0BF0B5EC11F02CEF0BF0ADEC11F0C3
:1015C0002CEF0BF072C0DCF073C0DDF002D8F3EF4B
:1015D0000AF00500FA6E00016651FD6E6751FE6E5D
:1015E000FF6AFA5012000001DE6FDF6BDF51000A64
:1015F000D8B4FDEF0AF0DEEF0AF0DE51010AD8B4EC
:10160000DEEF0AF0030AD8B4D6EF0AF0010AD8B424
:10161000DAEF0AF0070AD8B4DEEF0AF0DEEF0AF0DC
:10162000000183917DC0D9FF7EC0DAFF7D4B7E2B08
:10163000DF5094EC11F000017F07D8A080077F51A4
:101640008011D8A426EF0BF028EF0BF02BEF0BF056
:10165000060E2CEF0BF0030E1200240E3724D96E69
:10166000DA6A000EDA22000EDF6EABA43AEF0BF05E
:101670003CEF0BF050EF0BF0240E3724D96EDA6AF2
:10168000000EDA22DF8202D850EF0BF00500FA6E6E
:101690000001ED51FD6EEE51FE6EFF6AFA50120030
:1016A000ABA255EF0BF057EF0BF06BEF0BF0240EE6
:1016B0003724D96EDA6A000EDA22DF8402D86BEFA3
:1016C0000BF00500FA6E0001EB51FD6EEC51FE6E61
:1016D000FF6AFA501200240E3724D96EDA6A000E1F
:1016E000DA22DF50D8B477EF0BF079EF0BF088EF08
:1016F0000BF002D886EF0BF00500FA6E0001E951FD
:10170000FD6EEA51FE6EFF6AFA5012008AEF0BF08E
:1017100074EC10F01200D3EC11F07DC0D9FF7EC044
:10172000DAFFDF6E00017D4B7E2B7F07D8A080079C
:101730007F518011D8B49FEF0BF0A1EF0BF0A6EF13
:101740000BF0C0EC11F0050EDEEF0BF08387B1EF6C
:101750000BF0A1EC11F0DEEF0BF0A5EC11F0DEEFD9
:101760000BF06CC0DCF06DC0DDF002D8C1EF0BF007
:101770000500FA6E6051FD6E6151FE6EFF6AFA500F
:1017800012000001DE6FDF6BDF51000AD8B4CBEF2F
:101790000BF0ADEF0BF0DE51010AD8B4ADEF0BF05A
:1017A000030AD8B4A9EF0BF0010AD8B4A9EF0BF0E3
:1017B000070AD8B4ADEF0BF0ADEF0BF012000868DC
:1017C00009681CEF0CF001C0D9FF02C0DAFFDF503E
:1017D000046E0450081A014A022A000E076E000E19
:1017E000066E08A0F6EF0BF0F8EF0BF005EF0CF02B
:1017F000D8900930056E0830046E010E0418086E8A
:10180000A00E0518096E0CEF0CF0D8900930046E8C
:101810000830086E04C009F0064A072A07BE1AEF0E
:101820000CF0075009E1080E065CD8A01AEF0CF086
:101830001CEF0CF0F1EF0BF003060328D8A423EF04
:101840000CF025EF0CF0E3EF0BF008C001F009C03D
:1018500002F012000001D36F010E0001D46F83B5B6
:1018600034EF0CF036EF0CF071EF0CF0D3C07CF0DD
:101870008393838583910E0E816F010E7B6FF40E2F
:101880007A6F8387B20E606F230E616F000E6C6FEC
:10189000000E6D6FB20E626F230E636F000E6E6FDF
:1018A000000E6F6FB20E646F230E656F000E706FC7
:1018B000000E716FB20E666F230E676F000E726FAF
:1018C000000E736FAE0E686F230E696F000E746F9B
:1018D000000E756FE5EC11F0C0EC10F0000E000189
:1018E000D46FD4511200AECF02F0C6EC11F03BB46D
:1018F0007CEF0CF07EEF0CF0B4EF0CF03BB083EF1C
:101900000CF085EF0CF0A4EF0CF03B80310E0218C8
:10191000D8A48DEF0CF08FEF0CF0A1EF0CF03B8210
:1019200089B295EF0CF098EF0CF0010E99EF0CF0E6
:10193000000EFF0A016E014689500118FD0B0118C7
:10194000896E000E3D6ED58E3BA2A9EF0CF0ABEF79
:101950000CF0B4EF0CF08D0E3D24D96EDA6A000E57
:10196000DA2202C0DFFF3D2A12009D9A5A0E0001C2
:10197000D36F160ED46F80EC11F09D98AC0E000161
:10198000D36F1E0ED46F7BEC11F0080EB86E900E64
:10199000AB6E240EAC6ECF0EAF6E000EB06ED60ED8
:1019A0000001D36F230ED46F8AEC11F0920E000168
:1019B000D36F230ED46F85EC11F0980E0001D36F16
:1019C000230ED46F8FEC11F0000E346E000E396EC2
:1019D000000E386E080E466E000E376E000E366E24
:1019E000000E356E9D8A12000001838705EF0DF011
:1019F000B1EC11F032EF0DF0D1EC11F0030E32EF3B
:101A00000DF0ADEC11F032EF0DF06CC0DCF06DC0FC
:101A1000DDF002D815EF0DF00500FA6E6051FD6E95
:101A20006151FE6EFF6AFA5012000001DE6FDF6B3B
:101A3000DF51000AD8B41FEF0DF001EF0DF0DE51B9
:101A4000010AD8B401EF0DF0030AD8B4F8EF0CF096
:101A5000010AD8B4F8EF0CF0070AD8B4FCEF0CF088
:101A600001EF0DF012000001D76F0001D351D41126
:101A7000D8B43DEF0DF03FEF0DF059EF0DF0D75119
:101A8000020D600EF324D96E000EF420DA6ED3C07E
:101A9000DEFFD4C0DDFFD751020D6C0EF324D96EEA
:101AA000000EF420DA6ED5C0DEFFD6C0DDFF71EF88
:101AB0000DF0D751020D600EF324D96E000EF42004
:101AC000DA6EB20EDE6E230EDD6ED751020D6C0E95
:101AD000F324D96E000EF420DA6E000EDE6E000ED6
:101AE000DD6E1200030E95EC0FF001C00EF002C087
:101AF0000FF00F5009E10B0E0E5CD8A082EF0DF035
:101B000084EF0DF089EF0DF0020E39EC11F0AAEF21
:101B10000DF000019129D8A490EF0DF092EF0DF097
:101B20009FEF0DF0010E016E3E0E026E000E036E71
:101B30000A0E046E0E5057EC0AF0AAEF0DF0000EDC
:101B4000016E3E0E026E000E036E0A0E046E0E5003
:101B500057EC0AF01200E5EC11F0000183A1B3EF9D
:101B60000DF0B5EF0DF0C2EF0DF02FEC11F0000904
:101B7000D8B4BDEF0DF0BFEF0DF0C2EF0DF00F0EBA
:101B80000001816F00018151020D010EF324F66EF8
:101B9000100EF420F76EF86A000EF8220900F5CF57
:101BA000E0F00900F5CFE1F002D8E0EF0DF005001C
:101BB000FA6EE051FD6EE151FE6EFF6AFA501200BE
:101BC0000001816F12003D50FE0F3D6E8D0E016EC3
:101BD000000E026E3DC003F0DFEC0BF001C00BF015
:101BE00002C00CF00BC00DF08D0E3D24D96EDA6AE8
:101BF000000EDA220D50DE18D8A401EF0EF003EF2C
:101C00000EF018EF0EF03D2A0C500D6E8D0E3D2497
:101C1000D96EDA6A000EDA220D50DE18D8A413EF5E
:101C20000EF015EF0EF018EF0EF0010E19EF0EF09A
:101C3000000E120000018391020E826F28EF0EF059
:101C4000B1EC11F04DEF0EF0ADEC11F04DEF0EF0E8
:101C500070C0DCF071C0DDF002D838EF0EF0050086
:101C6000FA6E6451FD6E6551FE6EFF6AFA50120005
:101C70000001DE6FDF6BDF51000AD8B442EF0EF0D7
:101C800024EF0EF0DE51020AD8B420EF0EF0010A64
:101C9000D8B420EF0EF024EF0EF012000001E86F30
:101CA0000001E8512AEC0CF00009D8B45AEF0EF00C
:101CB0005CEF0EF050EF0EF0E4C0D3F0E5C0D4F0CE
:101CC000E6C0D5F0E7C0D6F0AEEC10F0000E000193
:101CD000D86F000ED96F000EDA6F000EDB6F0DECBF
:101CE00011F099EC11F046EC10F0E806D8B47BEF57
:101CF0000EF07DEF0EF073EF0EF01200030E95EC78
:101D00000FF001C00EF002C00FF00FBE91EF0EF009
:101D10000F5009E10B0E0E5CD8A091EF0EF093EF7F
:101D20000EF098EF0EF0020E39EC11F0A8EF0EF065
:101D3000050E95EC0FF0D8900E34D96E0F34DA6E94
:101D4000AB0ED926000EDA2201C0DEFF02C0DDFF95
:101D500012000001E86F0001E8512AEC0CF00009C4
:101D6000D8B4B5EF0EF0B7EF0EF0ABEF0EF0E4C065
:101D7000D3F0E5C0D4F0E6C0D5F0E7C0D6F0AEECC5
:101D800010F09DEC11F046EC10F0E806D8B4CBEF63
:101D90000EF0CDEF0EF0C3EF0EF012000001E26F77
:101DA000010E0001E36F83B3D8EF0EF0DAEF0EF00F
:101DB000EFEF0EF08383000EE36FE251D8B4E3EF50
:101DC0000EF0E5EF0EF0E9EF0EF0010E816FEBEF94
:101DD0000EF0020E816FDFEC11F0F0EC10F000015C
:101DE000E3511200000120EE02F0DC51D926DD5152
:101DF000DA22DECFD3F0DDCFD4F0DCC0D9FFDDC0F6
:101E0000DAFFDECFD5F0DDCFD6F0AEEC10F0000E6D
:101E10000001D86F000ED96F000EDA6F000EDB6F75
:101E200019EC11F0020E12007A0EF66E230EF76E08
:101E3000000EF86E00EEF3F010EE06F00900F5CF9C
:101E4000EEFFE550E150FAE100EE60F0730EEE6A4D
:101E5000E806FDE100EE24F01E0EEE6AE806FDE164
:101E6000489048920001D6EF09F00C6E8D0E016E7D
:101E7000000E026E0CC003F0DFEC0BF001C00AF0A4
:101E800002C00BF08D0E0C24D96EDA6A000EDA2235
:101E90000AC0DFFF0C2A8D0E0C24D96EDA6A000E00
:101EA000DA220B50DF6E0CC03DF01200080E4660C7
:101EB0005CEF0FF05EEF0FF074EF0FF02C0E382494
:101EC000D96EDA6A000EDA22DF50AD6E382A070EBC
:101ED00038646DEF0FF06FEF0FF071EF0FF0000E41
:101EE000386E462A75EF0FF09D9812003BA47BEFE9
:101EF0000FF07DEF0FF094EF0FF0E3EC0DF0000921
:101F0000D8A485EF0FF087EF0FF092EF0FF0040EDB
:101F100039EC11F0010E00018C6F000E3C6E3B9409
:101F200094EF0FF0CCEC08F01200086E0804076E76
:101F30008D0E0824D96EDA6A000EDA22DF50036EA5
:101F40008D0E0724D96EDA6A000EDA22DF50046E95
:101F50000450066E056A03500524016E000E06202B
:101F6000026E1200FFEC10F0F29447C0D6FF44500E
:101F70004510D8B4BEEF0FF0C0EF0FF0CCEF0FF06C
:101F800002D8CCEF0FF00500FA6E4450FD6E4550BC
:101F9000FE6EFF6AFA50120012003C503D5CD8A061
:101FA000D4EF0FF0D6EF0FF0E1EF0FF08D0E3C24E1
:101FB000D96EDA6A000EDA22DF50AD6E3C2AE5EF08
:101FC0000FF0000E00018C6F9D881200DCC0D3F072
:101FD000DDC0D4F0000E0001D66F010ED56FAEEC5F
:101FE00010F0000E0001D86F000ED96F000EDA6FEE
:101FF000000EDB6F19EC11F0040E1200DCC0D3F000
:10200000DDC0D4F0000E0001D66F020ED56FAEEC2D
:1020100010F0000E0001D86F000ED96F000EDA6FBD
:10202000000EDB6F19EC11F0020E1200DCC0D3F0D1
:10203000DDC0D4F0000E0001D66F010ED56FAEECFE
:1020400010F0000E0001D86F000ED96F000EDA6F8D
:10205000000EDB6F19EC11F0020E1200DCC0D3F0A1
:10206000DDC0D4F0000E0001D66F020ED56FAEECCD
:1020700010F0000E0001D86F000ED96F000EDA6F5D
:10208000000EDB6F19EC11F0040E1200010E0001BE
:10209000D36F83B34EEF10F050EF10F05AEF10F003
:1020A00083957C69E5EC11F0E1EC11F0E3EC11F0C3
:1020B00082C0D3F00001D35112009E9242504310CF
:1020C000D8B465EF10F067EF10F073EF10F002D89E
:1020D00073EF10F00500FA6E4250FD6E4350FE6E35
:1020E000FF6AFA5012001200840E3724D96EDA6AA1
:1020F000000EDA22AECFDFFF372A070E376483EFF8
:1021000010F085EF10F087EF10F0000E376E352AD3
:102110001200000E896E000E8A6E000E8B6EFC0E91
:10212000926E9368BF0E946E130E7E6E1F0E7F6EBE
:10213000000E7C6EF18E1200000ED76EE10ED66E90
:10214000E10E476EF294F28AD40E0001D36F230E93
:10215000D46F71EC11F0570ED56E1200000183A7F9
:10216000B4EF10F0B6EF10F0BFEF10F0D3C07DF079
:10217000D4C07EF0D5C07FF0D6C080F08397120027
:10218000C6BAC5EF10F0C7EF10F0D0EF10F0000E98
:10219000C76E080EC66E000EC56E130EC86EC68AD8
:1021A00012003E0ECB6E000ECC6E9E929D82D20E21
:1021B0000001D36F230ED46F6CEC11F03A0ECA6E8F
:1021C0001200CFEC11F025EC11F089EC10F076EC58
:1021D00011F0D1EC10F09CEC10F0B5EC0CF012000A
:1021E000F6EF10F042EC11F0ABEC0DF0000183B310
:1021F000FCEF10F0FEEF10F0F2EF10F012003B9049
:10220000D59E3BA206EF11F008EF11F00CEF11F094
:102210003B923B8476EC0FF01200D8C0D3F0D9C0CB
:10222000D4F0DAC0D5F0DBC0D6F0020E33EC0DF0FE
:102230001200D8C0D3F0D9C0D4F0DAC0D5F0DBC0DA
:10224000D6F0000E33EC0DF01200000EC76E080E33
:10225000C66E000EC56E130EC86EC69A1200C5BCBF
:1022600034EF11F037EF11F0010E38EF11F0000EDE
:1022700012000D6E00018E8F0DC08FF0030E35EC35
:102280000FF012009EA647EF11F049EF11F042EF58
:1022900011F01200000183817C517C2594EC11F037
:1022A000030E120000018381D8807C3594EC11F07C
:1022B000050E120000018393000E826F0E0E1200B5
:1022C00000018391D5EC11F0040E120000018393FC
:1022D000000E826F0E0E1200D3C042F0D4C043F045
:1022E0001200D3C044F0D4C045F01200600ED36E8B
:1022F000000E9B6E1200D3C0F1F0D4C0F2F01200B9
:10230000D3C0EFF0D4C0F0F01200D3C0EBF0D4C0D3
:10231000ECF01200D3C0EDF0D4C0EEF01200D3C048
:10232000E9F0D4C0EAF012000001D36FD3C0C9FFB6
:102330001200000ECEEC0EF01200010ECEEC0EF0EC
:102340001200C3EC11F0090E1200C3EC11F00A0EDA
:102350001200C0EC11F0050E1200DBEC11F0000EC3
:102360001200DDEC11F0010E1200DDEC11F0020E96
:102370001200DDEC11F0010E12001C00003064C0F0
:10238000C59AC5881200C58AC588120047C0D6FF05
:102390001200AB98AB88120074EC10F01200D09EC3
:1023A00012009E861200C9501200C5861200050E4A
:1023B0001200010E1200C5841200C5821200C580F1
:1023C00012009D961200C69A12009E9612009D98C9
:0823D0001200120012001200BD
:020000040020DA
:08000000FFFFFFFFFFFFFFFF00
:020000040030CA
:0E000000FF081F1EFF8B81FF0FC00FE00F4097
:00000001FF
