:0400000068EF00F0B5
:100008005382FACF03F0FBCF04F0D9CF05F0DACF53
:1000180006F0F2AA12EF00F014EF00F01FEF00F064
:10002800F2A419EF00F01BEF00F01FEF00F081ECD5
:100038000FF05EEF00F0F2AC24EF00F026EF00F0D6
:100048005EEF00F09DA82BEF00F02DEF00F042EFDF
:1000580000F09EA832EF00F034EF00F042EF00F01D
:1000680002D840EF00F00500FA6E4750FD6E485088
:10007800FE6EFF6AFA5012005EEF00F09DAA47EF8D
:1000880000F049EF00F05EEF00F09EAA4EEF00F09E
:1000980050EF00F05EEF00F002D85CEF00F00500D2
:1000A800FA6E4550FD6E4650FE6EFF6AFA50120019
:1000B8005EEF00F006C0DAFF05C0D9FF04C0FBFF01
:0C00C80003C0FAFF53921100C4EF0EF0C9
:10100000000022D821C8216015DE16F4212E199285
:10101000228A2282227A2272226A226222E821E82D
:101020001B00000E1A6E000E1B6E000E1C6E020ED0
:101030001D6E030E64EC0FF007C020F008C021F015
:101040001650176E186A2050175C21501858D8B0E7
:101050002CEF08F02EEF08F033EF08F0020ED3EC7F
:1010600010F0CBEF08F0050E64EC0FF007C01EF097
:1010700008C01FF043EF08F0F80E2024206EFF0E8A
:101080002120216E1A2A215007E1080E205CD8B0D9
:101090004CEF08F04EEF08F03CEF08F01A50142423
:1010A000D96E000E1520DA6EDF50196EA9EF08F028
:1010B0001E06D8A01F0620C017F0010E186E172AB2
:1010C00064EF08F0D8901836172E62EF08F0185029
:1010D00019140009D8B46FEF08F071EF08F07FEF32
:1010E00008F01CC017F0010E186E172A7AEF08F0EE
:1010F000D8901836172E78EF08F018501B121C2ABB
:10110000204A212A080E1C18D8A489EF08F08BEF7A
:1011100008F098EF08F0000E1C6E1D2A8C0E1D249E
:10112000D96EDA6A000EDA221BC0DFFF000E1B6EDA
:10113000080E20182110D8A4A0EF08F0A2EF08F0A4
:10114000A9EF08F0000E216E000E206E1A2A4EEF55
:1011500008F01E501F10D8A4B0EF08F0B2EF08F04E
:1011600058EF08F01C50D8B4B8EF08F0BAEF08F008
:10117000C3EF08F01D2A8C0E1D24D96EDA6A000E0A
:10118000DA221BC0DFFF1D50FE0F00018E6F1D2AEB
:101190001D50E5EC0EF01200040E206E030E64EC00
:1011A0000FF007C01CF008C01DF01650186E196A29
:1011B0001C50185C1D501958D8B0E1EF08F0E3EF4F
:1011C00008F0E8EF08F0020ED3EC10F04FEF09F052
:1011D000050E64EC0FF007C01EF008C01FF01E5093
:1011E000020DF3CF8EF0030E206E43EF09F01704CB
:1011F000D8A4FDEF08F0FFEF08F00EEF09F0D8904B
:101200001C34D96E1D34DA6EBE0ED926000EDA22D9
:10121000DECF1AF0DDCF1BF01BEF09F0D8901C34A5
:10122000D96E1D34DA6EAA0ED926000EDA22DECF70
:101230001AF0DDCF1BF01C4A1D2A1A0E146E000E88
:10124000156E20EE01F01450D9261550DA228C0EBE
:101250002024E16EE26A000EE222DFCFE7FF202ABF
:1012600014C0D9FF15C0DAFF8C0E2024E16EE26AAB
:10127000000EE222DFCFE7FF202AFF0E1E241E6EA3
:10128000FF0E1F201F6E1E501F10D8A44AEF09F03A
:101290004CEF09F0F7EF08F02050E5EC0EF01200EB
:1012A0008DEC10F0A80E076E180E086E15EC11F0FC
:1012B000F60E076E220E086E10EC11F0F28EF28C14
:1012C000730E0001DB6F50C0D5F051C0D6F052C094
:1012D000D7F04DC0D8F04EC0D9F04FC0DAF080A49E
:1012E00074EF09F076EF09F0A4EF09F00001DCB12A
:1012F0007CEF09F07EEF09F0A4EF09F08980D50EAC
:10130000186E000E196E000E1B6E030E1A6EDB5166
:1013100027EC0EF0D80E186E000E196E000E1B6E24
:10132000010E1A6E680E27EC0EF0D20E186E000E2B
:10133000196E000E1B6E030E1A6E680E7FEC0EF017
:101340000001DC81B5EF09F080B4A9EF09F0ABEF43
:1013500009F0B5EF09F00001DCA1B1EF09F0B3EF3E
:1013600009F0B5EF09F08990DC91ACA2BAEF09F071
:10137000BCEF09F0C6EF09F03A50D8B4C2EF09F05B
:10138000C4EF09F0C6EF09F09CEC0FF046EC0FF04B
:101390006FEF09F068EF00F00D6E000E0E6E000E9C
:1013A0000F6ED7EF09F00D50F80F0D6E0E2A080ED4
:1013B0000D60DDEF09F0DFEF09F0D3EF09F00E501B
:1013C0000824D96E000E0920DA6EDF500F6E0A0E67
:1013D0000A18D8A4EEEF09F0F0EF09F021EF0AF0B7
:1013E0000704D8A4F6EF09F0F8EF09F008EF0AF0C7
:1013F0000DC00BF0010E0C6E0B2A01EF0AF0D89015
:101400000C360B2EFFEF09F00C500F1217EF0AF0FD
:101410000DC00BF0010E0C6E0B2A11EF0AF0D890E4
:101420000C360B2E0FEF0AF00C50FF0A0F160E5061
:101430000824D96E000E0920DA6E0FC0DFFF3DEFE1
:101440000AF00DC00BF0010E0C6E0B2A2AEF0AF009
:10145000D8900C360B2E28EF0AF00C500F14000910
:10146000D8B435EF0AF037EF0AF03BEF0AF0010E7F
:101470000D6E3DEF0AF0000E0D6E0D501200000EC5
:101480003D6E7EEF0AF03F0E146E000E156E0A0ED2
:10149000166E11EC08F0ACEF0AF0410E146E000E5F
:1014A000156E0A0E166E11EC08F0ACEF0AF0AA0EDB
:1014B000146E000E156E0A0E166E000E176ECCEC32
:1014C00008F0ACEF0AF0BE0E146E000E156E0A0E98
:1014D000166E010E176ECCEC08F0ACEF0AF04CEC77
:1014E0000DF0ACEF0AF054EC0EF0ACEF0AF000F0A7
:1014F00000F0010ED3EC10F0ACEF0AF000018D51BA
:10150000226E236A2350000AD8B489EF0AF079EFDB
:101510000AF02250010AD8B443EF0AF0030AD8B403
:101520004DEF0AF0010AD8B457EF0AF0070AD8B411
:1015300063EF0AF0010AD8B46FEF0AF0030AD8B4D7
:1015400073EF0AF0090AD8B477EF0AF01F0AD8B48B
:1015500078EF0AF079EF0AF0010E3A6E3C9412002F
:10156000C9EC10F00009D8B4B8EF0AF0BAEF0AF0ED
:10157000F5EF0AF0C8EF0AF049EC11F011EF0BF0AB
:1015800045EC11F011EF0BF03DEC11F011EF0BF009
:1015900072C010F073C011F002D8D9EF0AF0050044
:1015A000FA6E00016651FD6E6751FE6EFF6AFA50D9
:1015B0001200126E136A1350000AD8B4E2EF0AF058
:1015C000C4EF0AF01250010AD8B4C4EF0AF0030ABB
:1015D000D8B4BCEF0AF0010AD8B4C0EF0AF0070A89
:1015E000D8B4C4EF0AF0C4EF0AF0000183917DC0C3
:1015F000D9FF7EC0DAFF7D4B7E2BDF504DEC11F022
:1016000000017F07D8A080077F518011D8A40BEF7D
:101610000BF00DEF0BF010EF0BF0060E11EF0BF0CF
:10162000030E1200240E3724D96EDA6A000EDA2275
:10163000000EDF6EABA41FEF0BF021EF0BF034EFC9
:101640000BF0240E3724D96EDA6A000EDA22DF821C
:1016500002D834EF0BF00500FA6E4350FD6E445093
:10166000FE6EFF6AFA501200ABA239EF0BF03BEFAF
:101670000BF04FEF0BF0240E3724D96EDA6A000E10
:10168000DA22DF8402D84FEF0BF00500FA6E00017A
:10169000DF51FD6EE051FE6EFF6AFA501200240E1B
:1016A0003724D96EDA6A000EDA22DF50D8B45BEF45
:1016B0000BF05DEF0BF06CEF0BF002D86AEF0BF064
:1016C0000500FA6E0001DD51FD6EDE51FE6EFF6A0F
:1016D000FA5012006EEF0BF022EC10F0120067ECE3
:1016E00011F07DC0D9FF7EC0DAFFDF6E00017D4BB7
:1016F0007E2B7F07D8A080077F518011D8B483EF5D
:101700000BF085EF0BF08AEF0BF054EC11F0050EA7
:10171000C1EF0BF0838795EF0BF031EC11F0C1EFC7
:101720000BF035EC11F0C1EF0BF06CC010F06DC098
:1017300011F002D8A5EF0BF00500FA6E6051FD6EB6
:101740006151FE6EFF6AFA501200126E136A135056
:10175000000AD8B4AEEF0BF091EF0BF01250010A73
:10176000D8B491EF0BF0030AD8B48DEF0BF0010A57
:10177000D8B48DEF0BF0070AD8B491EF0BF091EFCE
:101780000BF012000E680F68FFEF0BF007C0D9FFD7
:1017900008C0DAFFDF500A6E0A500E1A074A082AFC
:1017A000000E0D6E000E0C6E0EA0D9EF0BF0DBEFED
:1017B0000BF0E8EF0BF0D8900F300B6E0E300A6E86
:1017C000010E0A180E6EA00E0B180F6EEFEF0BF045
:1017D000D8900F300A6E0E300E6E0AC00FF00C4A11
:1017E0000D2A0DBEFDEF0BF00D5009E1080E0C5C4B
:1017F000D8A0FDEF0BF0FFEF0BF0D4EF0BF00906D4
:101800000928D8A406EF0CF008EF0CF0C6EF0BF097
:101810000EC007F00FC008F01200076E010E086E30
:10182000000183B516EF0CF018EF0CF052EF0CF03E
:1018300007C07CF08393838583910E0E816F010E28
:101840007B6FF40E7A6F8387DA0E606F220E616F02
:10185000000E6C6F000E6D6FDA0E626F220E636FFA
:10186000000E6E6F000E6F6FDA0E646F220E656FE2
:10187000000E706F000E716FDA0E666F220E676FCA
:10188000000E726F000E736FD60E686F220E696FB6
:10189000000E746F000E756F79EC11F06DEC10F0A6
:1018A000000E086E08501200AECF02F05AEC11F094
:1018B0003CB45DEF0CF05FEF0CF096EF0CF03CB039
:1018C00064EF0CF066EF0CF086EF0CF03C80310E0C
:1018D0000218D8A46EEF0CF070EF0CF082EF0CF051
:1018E0003C8289B276EF0CF079EF0CF0010E7AEFC2
:1018F0000CF0000EFF0A016E014689500118FD0B25
:101900000118896E000E3E6E7DEC11F03CA28BEF4B
:101910000CF08DEF0CF096EF0CF08C0E3E24D96E8F
:10192000DA6A000EDA2202C0DFFF3E2A120000014E
:101930008387A8EF0CF041EC11F0D4EF0CF065ECCC
:1019400011F0030ED4EF0CF03DEC11F0D4EF0CF0DD
:101950006CC010F06DC011F002D8B8EF0CF00500AB
:10196000FA6E6051FD6E6151FE6EFF6AFA50120010
:10197000126E136A1350000AD8B4C1EF0CF0A4EF32
:101980000CF01250010AD8B4A4EF0CF0030AD8B43A
:101990009BEF0CF0010AD8B49BEF0CF0070AD8B407
:1019A0009FEF0CF0A4EF0CF012000B6E0750081024
:1019B000D8B4DDEF0CF0DFEF0CF0F9EF0CF00B50CA
:1019C000020D600EF324D96E000EF420DA6E07C00B
:1019D000DEFF08C0DDFF0B50020D6C0EF324D96E44
:1019E000000EF420DA6E09C0DEFF0AC0DDFF11EF41
:1019F0000DF00B50020D600EF324D96E000EF42092
:101A0000DA6EDA0EDE6E220EDD6E0B50020D6C0EFB
:101A1000F324D96E000EF420DA6E000EDE6E000E96
:101A2000DD6E12009D9A240E076E160E086E15ECE0
:101A300011F09D984C0E076E1E0E086E10EC11F002
:101A4000080EB86E900EAB6E240EAC6ECF0EAF6E5D
:101A5000000EB06E040E076E230E086E1FEC11F020
:101A6000BA0E076E220E086E1AEC11F0C00E076E49
:101A7000220E086E24EC11F0000E346E000E396E4A
:101A8000000E386E080E4B6E000E376E000E366E6E
:101A9000000E356E9D8A1200030E64EC0FF007C035
:101AA00014F008C015F0155009E10B0E145CD8A015
:101AB0005CEF0DF05EEF0DF063EF0DF0020ED3EC76
:101AC00010F084EF0DF000019029D8A46AEF0DF01A
:101AD0006CEF0DF079EF0DF0010E076E3F0E086E02
:101AE000000E096E0A0E0A6E1450CCEC09F084EF59
:101AF0000DF0000E076E3F0E086E000E096E0A0E06
:101B00000A6E1450CCEC09F0120079EC11F00001CF
:101B100083A18DEF0DF08FEF0DF09CEF0DF0C9EC70
:101B200010F00009D8B497EF0DF099EF0DF09CEF8D
:101B30000DF00F0E0001816F00018151020D010EA9
:101B4000F324F66E100EF420F76EF86A000EF822F9
:101B50000900F5CF14F00900F5CF15F002D8BAEF5F
:101B60000DF00500FA6E1450FD6E1550FE6EFF6A02
:101B7000FA5012000001816F12003E50FE0F3E6EBF
:101B80008C0E076E000E086E3EC009F0C2EC0BF022
:101B900007C011F008C012F011C013F08C0E3E24E3
:101BA000D96EDA6A000EDA221350DE18D8A4DBEF01
:101BB0000DF0DDEF0DF0F2EF0DF03E2A1250136E36
:101BC0008C0E3E24D96EDA6A000EDA221350DE182B
:101BD000D8A4EDEF0DF0EFEF0DF0F2EF0DF0010EE8
:101BE000F3EF0DF0000E120000018391020E826FE0
:101BF00002EF0EF041EC11F026EF0EF03DEC11F08B
:101C000026EF0EF070C010F071C011F002D812EF84
:101C10000EF00500FA6E6451FD6E6551FE6EFF6AAE
:101C2000FA501200126E136A1350000AD8B41BEF58
:101C30000EF0FEEF0DF01250020AD8B4FAEF0DF0DC
:101C4000010AD8B4FAEF0DF0FEEF0DF012001C6E91
:101C50001C500DEC0CF00009D8B431EF0EF033EF4E
:101C60000EF028EF0EF018C007F019C008F01AC0E7
:101C700009F01BC00AF04AEC10F0000E0C6E000ECA
:101C80000D6E000E0E6E000E0F6EA7EC10F029EC1C
:101C900011F00CEC10F0E806D8B451EF0EF053EF51
:101CA0000EF049EF0EF01200030E64EC0FF007C0C7
:101CB00014F008C015F015BE67EF0EF0155009E1DD
:101CC0000B0E145CD8A067EF0EF069EF0EF06EEF0C
:101CD0000EF0020ED3EC10F07EEF0EF0050E64EC69
:101CE0000FF0D8901434D96E1534DA6EAA0ED926B6
:101CF000000EDA2207C0DEFF08C0DDFF12001C6EF6
:101D00001C500DEC0CF00009D8B489EF0EF08BEFED
:101D10000EF080EF0EF018C007F019C008F01AC0DE
:101D200009F01BC00AF04AEC10F02DEC11F00CEC9D
:101D300010F0E806D8B49FEF0EF0A1EF0EF097EF89
:101D40000EF01200166E010E176E000183B3ABEF9A
:101D50000EF0ADEF0EF0C2EF0EF08383000E176EA3
:101D60001650D8B4B6EF0EF0B8EF0EF0BCEF0EF090
:101D7000010E816FBEEF0EF0020E816F73EC11F059
:101D80007EEC10F017501200A20EF66E220EF76EC7
:101D9000000EF86E00EE4DF010EE06F00900F5CFE3
:101DA000EEFFE550E150FAE100EE60F0720EEE6AEF
:101DB000E806FDE100EE24F01F0EEE6AE806FDE104
:101DC00053905392000150EF09F0126E8C0E076E83
:101DD000000E086E12C009F0C2EC0BF007C010F044
:101DE00008C011F08C0E1224D96EDA6A000EDA22C5
:101DF00010C0DFFF122A8C0E1224D96EDA6A000E90
:101E0000DA221150DF6E12C03EF0120020EE02F016
:101E10001050D9261150DA22DECF07F0DDCF08F0BE
:101E200010C0D9FF11C0DAFFDECF09F0DDCF0AF014
:101E30004AEC10F0000E0C6E000E0D6E000E0E6ED1
:101E4000000E0F6EB3EC10F0020E1200080E4B6085
:101E50002CEF0FF02EEF0FF044EF0FF02C0E382484
:101E6000D96EDA6A000EDA22DF50AD6E382A070E1C
:101E700038643DEF0FF03FEF0FF041EF0FF0000E31
:101E8000386E4B2A45EF0FF09D9812003CA44BEFA3
:101E90000FF04DEF0FF063EF0FF0BDEC0DF0000908
:101EA000D8A455EF0FF057EF0FF061EF0FF0040ECD
:101EB000D3EC10F0010E3A6E000E3D6E3C9463EFD1
:101EC0000FF03FEC0AF012000E6E0E040D6E8C0E39
:101ED0000E24D96EDA6A000EDA22DF50096E8C0EFB
:101EE0000D24D96EDA6A000EDA22DF500A6E0A502B
:101EF0000C6E0B6A09500B24076E000E0C20086E46
:101F000012009AEC10F0F2944CC0D6FF49504A10DF
:101F1000D8B48DEF0FF08FEF0FF09BEF0FF002D8DA
:101F20009BEF0FF00500FA6E4950FD6E4A50FE6EB1
:101F3000FF6AFA50120012003D503E5CD8A0A3EF99
:101F40000FF0A5EF0FF0B0EF0FF08C0E3D24D96E1F
:101F5000DA6A000EDA22DF50AD6E3D2AB3EF0FF0E1
:101F6000000E3A6E9D88120010C007F011C008F0F4
:101F7000000E0A6E010E096E4AEC10F0000E0C6E97
:101F8000000E0D6E000E0E6E000E0F6EB3EC10F014
:101F9000040E120010C007F011C008F0000E0A6E07
:101FA000020E096E4AEC10F0000E0C6E000E0D6E63
:101FB000000E0E6E000E0F6EB3EC10F0020E12004B
:101FC00010C007F011C008F0000E0A6E010E096E75
:101FD0004AEC10F0000E0C6E000E0D6E000E0E6E30
:101FE000000E0F6EB3EC10F0020E120010C007F0DE
:101FF00011C008F0000E0A6E020E096E4AEC10F0D5
:10200000000E0C6E000E0D6E000E0E6E000E0F6EAA
:10201000B3EC10F0040E1200010E076E000183B342
:1020200014EF10F016EF10F020EF10F083957C699C
:1020300079EC11F075EC11F077EC11F082C007F03B
:1020400007501200840E3724D96EDA6A000EDA22A5
:10205000AECFDFFF372A070E376431EF10F033EFD2
:1020600010F035EF10F0000E376E352A1200000E1A
:10207000896E000E8A6E000E8B6EFC0E926E936857
:10208000BF0E946E130E7E6E1F0E7F6E000E7C6E62
:10209000F18E1200000183A750EF10F052EF10F004
:1020A0005BEF10F007C07DF008C07EF009C07FF044
:1020B0000AC080F083971200000ED76EE10ED66E34
:1020C000E10E4C6EF294F28A020E076E230E086E39
:1020D00006EC11F0570ED56E1200C6BA72EF10F072
:1020E00074EF10F07DEF10F0000EC76E080EC66E94
:1020F000000EC56E130EC86EC68A120084EF10F073
:10210000DCEC10F085EC0DF0000183B38AEF10F0E9
:102110008CEF10F080EF10F0120063EC11F0BFECC8
:1021200010F037EC10F00BEC11F05CEC10F012EC4E
:102130000DF012003C907FEC11F03CA2A2EF10F0E9
:10214000A4EF10F0A6EF10F03C923C8412000CC0FB
:1021500007F00DC008F00EC009F00FC00AF0020E23
:10216000D5EC0CF012000CC007F00DC008F00EC04A
:1021700009F00FC00AF0000ED5EC0CF01200000EB2
:10218000C76E080EC66E000EC56E130EC86EC69AD8
:102190001200C5BCCEEF10F0D1EF10F0010ED2EF5F
:1021A00010F0000E1200136E00018D8F13C08EF020
:1021B000030EE5EC0EF012009EA6E1EF10F0E3EF47
:1021C00010F0DCEF10F01200000183817C517C25BF
:1021D0004DEC11F0030E120000018381D8807C3594
:1021E0004DEC11F0050E120000018393000E826F7A
:1021F0000E0E12000001839169EC11F0040E120022
:1022000000018393000E826F0E0E120007C049F08A
:1022100008C04AF01200600ED36E000E9B6E1200D2
:1022200007C047F008C048F0120007C045F008C0DA
:1022300046F0120007C0DFF008C0E0F0120007C04F
:1022400043F008C044F0120007C0DDF008C0DEF023
:102250001200000EA2EC0EF01200010EA2EC0EF025
:10226000120057EC11F0090E120057EC11F00A0E93
:10227000120054EC11F0050E12006FEC11F0000E7C
:10228000120071EC11F0010E120071EC11F0020E4F
:10229000120071EC11F0010E1200076E07C0C9FFA9
:1022A00012001C00003064C0C59AC5881200C58A9F
:1022B000C58812004CC0D6FF1200AB98AB88120044
:1022C00022EC10F01200D09E12009E861200C9501F
:1022D0001200C5861200050E1200010E1200C58400
:1022E0001200C5821200C58012009D961200C69A87
:1022F00012009E9612009D981200D58E1200D59E57
:06230000120012001200A1
:020000040020DA
:08000000FFFFFFFFFFFFFFFF00
:020000040030CA
:0E000000FF081F1EFF8B81FF0FC00FE00F4097
:00000001FF
