:0400000038EF00F0E5
:100008005382FACF03F0FBCF04F0D9CF05F0DACF53
:1000180006F0F2BAF2A403D03EEC0EF01BD0F2AC1C
:1000280019D09DB89EA808D001D814D00500FA6E42
:100038004750FD6E48500AD09DBA9EAA0BD001D8F1
:1000480009D00500FA6E4550FD6E4650FE6EFF6AF7
:10005800FA50120006C0DAFF05C0D9FF04C0FBFF42
:0C00680003C0FAFF5392110023EF0DF0CB
:1010000000741E3C1E2C1EC214D615681EA6171294
:101010001F0A1F021FFA1EF21EEA1EE21E5C1E6855
:101020001900000E1A6E000E1B6E000E1C6E020ED2
:101030001D6E030E85EC0DF007C020F008C021F0F6
:101040001650176E186A2050175C21501858D8B0E7
:1010500004D0020E04EC0FF01200050E85EC0DF02A
:1010600007C01EF008C01FF007D0F80E2024206E25
:10107000FF0E2120216E1A2A2150F7E1080E205C74
:10108000D8B0F3D71A501424D96E000E1520DA6E9A
:10109000DF50196E3DD01E06D8A01F0620C017F0E5
:1010A000010E186E172A02D0D8901836172EFCD7CA
:1010B000185019140009D8B40CD01CC017F0010E38
:1010C000186E172A02D0D8901836172EFCD7185051
:1010D0001B121C2A204A212A080E1C18D8A40DD045
:1010E000000E1C6E1D2A8C0E1D24D96EDA6A000EAD
:1010F000DA221BC0DFFF000E1B6E080E2018211025
:10110000D8A406D0000E216E000E206E1A2ABAD77F
:101110001E501F10D8A4BFD71C50D8B409D01D2A08
:101120008C0E1D24D96EDA6A000EDA221BC0DFFF96
:101130001D50FE0F00018E6F1D2A1D5044EC0DF056
:101140001200040E206E030E85EC0DF007C01CF09B
:1011500008C01DF01650186E196A1C50185C1D50FE
:101160001958D8B004D0020E04EC0FF01200050E8E
:1011700085EC0DF007C01EF008C01FF01E50020DD8
:10118000F3CF8EF0030E206E41D01704D8A409D0FF
:10119000D8901C34D96E1D34DA6EBE0ED926000EDE
:1011A00008D0D8901C34D96E1D34DA6EAA0ED92618
:1011B000000EDA22DECF1AF0DDCF1BF01C4A1D2A0A
:1011C0001A0E146E000E156E20EE01F01450D92682
:1011D0001550DA228C0E2024E16EE26A000EE22223
:1011E000DFCFE7FF202A14C0D9FF15C0DAFF8C0E2D
:1011F0002024E16EE26A000EE222DFCFE7FF202A20
:10120000FF0E1E241E6EFF0E1F201F6E1E501F108D
:10121000D8A4BBD7205044EC0DF01200000E3D6E58
:1012200034D03F0E146E000E156E0A0E166E11ECC1
:1012300008F04DD0410E146E000E156E0A0E166E9B
:1012400011EC08F044D0AA0E146E000E156E0A0EB2
:10125000166E000E176EA1EC08F039D0BE0E146E9B
:10126000000E156E0A0E166E010E176EA1EC08F038
:101270002ED003EC0CF02BD0DCEC0CF028D000F0DE
:1012800000F0010E04EC0FF022D000018D51226E0F
:10129000236A2350000AD8A4F4D72250010AD8B4F4
:1012A000C0D7030AD8B4C6D7010AD8B4CCD7070A26
:1012B000D8B4D4D7010AD8B4DCD7030AD8B4DCD761
:1012C000090AD8B4DCD71F0AD8B4DAD7DAD7010EA6
:1012D0003A6E3C941200BCEC0EF0120E076E190E22
:1012E000086E55EC0FF07C0E076E1F0E086E50EC6A
:1012F0000FF0F28EF28C730E0001DB6F50C0D5F050
:1013000051C0D6F052C0D7F04DC0D8F04EC0D9F081
:101310004FC0DAF080A428D00001DCB125D089804C
:10132000D50E186E000E196E000E1B6E030E1A6E8F
:10133000DB5100EC0DF0D80E186E000E196E000E89
:101340001B6E010E1A6E680E00EC0DF0D20E186EB8
:10135000000E196E000E1B6E030E1A6E680EA2ECC4
:101360000DF00001DC8107D080B405D00001DCA1C4
:1013700002D08990DC91ACA204D03A50D8A478EC89
:101380000EF052EC0EF0C6D70D6E000E0E6E000E73
:101390000F6E04D00D50F80F0D6E0E2A080E0D6062
:1013A000F9D70E500824D96E000E0920DA6EDF50EE
:1013B0000F6E0A0E0A18D8A426D00704D8A40DD0A0
:1013C0000DC00BF0010E0C6E0B2A02D0D8900C361B
:1013D0000B2EFCD70C500F120DD00DC00BF0010ED0
:1013E0000C6E0B2A02D0D8900C360B2EFCD70C506A
:1013F000FF0A0F160E500824D96E000E0920DA6E6F
:101400000FC0DFFF13D00DC00BF0010E0C6E0B2AC6
:1014100002D0D8900C360B2EFCD70C500F140009BC
:10142000D8B402D0010E01D0000E0D6E0D50120086
:10143000240E3724D96EDA6A000EDA22000EDF6E2F
:10144000ABA412D0240E3724D96EDA6A000EDA2249
:10145000DF8201D809D00500FA6E4350FD6E44507A
:10146000FE6EFF6AFA501200ABA213D0240E37248E
:10147000D96EDA6A000EDA22DF8401D80AD00500BC
:10148000FA6E0001DF51FD6EE051FE6EFF6AFA5008
:101490001200240E3724D96EDA6A000EDA22DF50E9
:1014A000D8B40CD001D812000500FA6E0001DD514D
:1014B000FD6EDE51FE6EFF6AFA501200ACEC0EF0CB
:1014C000120040EC0FF00009D8A40AD02BD089EC10
:1014D0000FF0120085EC0FF012007DEC0FF01200FF
:1014E00072C010F073C011F001D80AD00500FA6E76
:1014F00000016651FD6E6751FE6EFF6AFA501200E0
:10150000126E136A1350000AD8A4E7D71250010ACA
:10151000D8B4E3D7030AD8B4DAD7010AD8B4DAD7F3
:10152000070ADBD7000183917DC0D9FF7EC0DAFFB7
:101530007D4B7E2BDF508DEC0FF000017F07D8A094
:1015400080077F518011D8A402D0060E1200030E2E
:101550001200076E010E086E000183B53AD007C075
:101560007CF08393838583910E0E816F010E7B6FD8
:10157000F40E7A6F8387600E606F1F0E616F000E2E
:101580006C6F000E6D6F600E626F1F0E636F000E4A
:101590006E6F000E6F6F600E646F1F0E656F000E32
:1015A000706F000E716F600E666F1F0E676F000E1A
:1015B000726F000E736F5C0E686F1F0E696F000E06
:1015C000746F000E756FBCEC0FF0E2EC0EF0000EC5
:1015D000086E08501200AAEC0FF07DC0D9FF7EC043
:1015E000DAFFDF6E00017D4B7E2B7F07D8A08007DE
:1015F0007F518011D8B404D097EC0FF0050E120083
:10160000838706D071EC0FF0120075EC0FF012001A
:101610006CC010F06DC011F001D809D00500FA6E51
:101620006051FD6E6151FE6EFF6AFA501200126E3B
:10163000136A1350000AD8A4E8D71250010AD8B48C
:10164000E4D7030AD8B4DED7010AD8B4DBD7070A37
:10165000DCD79D9A300E076E140E086E55EC0FF015
:101660009D98520E076E1C0E086E50EC0FF0080E7F
:10167000B86E900EAB6E240EAC6ECF0EAF6E000E39
:10168000B06E8A0E076E1F0E086E5FEC0FF0400EF4
:10169000076E1F0E086E5AEC0FF0460E076E1F0EF7
:1016A000086E64EC0FF0000E346E000E396E000E02
:1016B000386E080E4B6E000E376E000E366E000E42
:1016C000356E9D8A12000E680F682DD007C0D9FFB5
:1016D00008C0DAFFDF500A6E0A500E1A074A082ABD
:1016E000000E0D6E000E0C6E0EA00CD0D8900F30B8
:1016F0000B6E0E300A6E010E0A180E6EA00E0B183D
:101700000F6E07D0D8900F300A6E0E300E6E0AC0E2
:101710000FF00C4A0D2A0DBEE7D70D5004E1080E5C
:101720000C5CD8A0E1D709060928D8A4CFD70EC0F1
:1017300007F00FC008F012000B6E07500810D8B465
:1017400019D00B50020D600EF324D96E000EF42058
:10175000DA6E07C0DEFF08C0DDFF0B50020D6C0E15
:10176000F324D96E000EF420DA6E09C0DEFF0AC041
:10177000DDFF12000B50020D600EF324D96E000E37
:10178000F420DA6E600EDE6E1F0EDD6E0B50020D61
:101790006C0EF324D96E000EF420DA6E000EDE6EAD
:1017A000000EDD6E1200000183870AD081EC0FF07D
:1017B0001200A8EC0FF0030E12007DEC0FF01200E7
:1017C0006CC010F06DC011F001D809D00500FA6EA0
:1017D0006051FD6E6151FE6EFF6AFA501200126E8A
:1017E000136A1350000AD8A4E8D71250010AD8B4DB
:1017F000E4D7030AD8B4DAD7010AD8B4D7D7070A8E
:10180000D8B4D7D7DAD7030E85EC0DF007C014F0A3
:1018100008C015F0155004E10B0E145CD8A004D0DC
:10182000020E04EC0FF0120000019029D8A40CD095
:10183000010E076E3F0E086E000E096E0A0E0A6E4C
:101840001450C4EC09F01200000E076E3F0E086E33
:10185000000E096E0A0E0A6E1450C4EC09F0120054
:10186000BCEC0FF0000183A108D040EC0FF00009A0
:10187000D8B403D00F0E0001816F00018151020D19
:10188000010EF324F66E100EF420F76EF86A000EC7
:10189000F8220900F5CF14F00900F5CF15F001D8B2
:1018A00009D00500FA6E1450FD6E1550FE6EFF6AE9
:1018B000FA5012000001816F12003E50FE0F3E6E82
:1018C0008C0E076E000E086E3EC009F063EC0BF044
:1018D00007C011F008C012F011C013F08C0E3E24A6
:1018E000D96EDA6A000EDA221350DE18D8A40FD0AF
:1018F0003E2A1250136E8C0E3E24D96EDA6A000E08
:10190000DA221350DE18D8A402D0010E1200000E05
:101910001200AECF02F09DEC0FF03CB412003CB0D0
:1019200017D03C80310E0218D8A40ED03C8289A278
:1019300002D0010E01D0000EFF0A016E014689504F
:101940000118FD0B0118896E000E3E6EC0EC0FF001
:101950003CA212008C0E3E24D96EDA6A000EDA2206
:1019600002C0DFFF3E2A120000018391020E826F47
:1019700006D081EC0FF012007DEC0FF0120070C069
:1019800010F071C011F001D809D00500FA6E645151
:10199000FD6E6551FE6EFF6AFA501200126E136AF8
:1019A0001350000AD8A4E8D71250020AD8B4E1D7DD
:1019B000010AD8B4DED7E0D7030E85EC0DF007C0DE
:1019C00014F008C015F015BE0AD0155004E10B0E36
:1019D000145CD8A004D0020E04EC0FF01200050E27
:1019E00085EC0DF0D8901434D96E1534DA6EAA0E49
:1019F000D926000EDA2207C0DEFF08C0DDFF120084
:101A00001C6E1C50A9EC0AF00009D8B4FAD718C013
:101A100007F019C008F01AC009F01BC00AF0C9ECA1
:101A20000EF0000E0C6E000E0D6E000E0E6E000E0F
:101A30000F6ED6EC0EF069EC0FF09BEC0EF0E806A2
:101A4000D8A41200FAD7220EF66E1F0EF76E000E03
:101A5000F86E00EE4DF010EE06F00900F5CFEEFF47
:101A6000E550E150FAE100EE60F0720EEE6AE80631
:101A7000FDE100EE24F01F0EEE6AE806FDE1539052
:101A8000539200016BEF09F0126E8C0E076E000E80
:101A9000086E12C009F063EC0BF007C010F008C02C
:101AA00011F08C0E1224D96EDA6A000EDA2210C000
:101AB000DFFF122A8C0E1224D96EDA6A000EDA22A7
:101AC0001150DF6E12C03EF0120020EE02F01050F6
:101AD000D9261150DA22DECF07F0DDCF08F010C092
:101AE000D9FF11C0DAFFDECF09F0DDCF0AF0C9EC73
:101AF0000EF0000E0C6E000E0D6E000E0E6E000E3F
:101B00000F6EEEEC0EF0020E12000E6E0E040D6E55
:101B10008C0E0E24D96EDA6A000EDA22DF50096EBE
:101B20008C0E0D24D96EDA6A000EDA22DF500A6EAE
:101B30000A500C6E0B6A09500B24076E000E0C2025
:101B4000086E12001C6E1C50A9EC0AF00009D8B4F3
:101B5000FAD718C007F019C008F01AC009F01BC066
:101B60000AF0C9EC0EF06DEC0FF09BEC0EF0E806FD
:101B7000D8A41200FAD7166E010E176E000183B3B7
:101B80000ED08383000E176E1650D8B402D0010E0B
:101B900001D0020E816FB6EC0FF00DEC0FF0175074
:101BA000120010C007F011C008F0000E0A6E010EFE
:101BB000096EC9EC0EF0000E0C6E000E0D6E000EDC
:101BC0000E6E000E0F6EEEEC0EF0040E120010C042
:101BD00007F011C008F0000E0A6E020E096EC9EC83
:101BE0000EF0000E0C6E000E0D6E000E0E6E000E4E
:101BF0000F6EEEEC0EF0020E120010C007F011C0D6
:101C000008F0000E0A6E010E096EC9EC0EF0000E0F
:101C10000C6E000E0D6E000E0E6E000E0F6EEEECD2
:101C20000EF0020E120010C007F011C008F0000EF6
:101C30000A6E020E096EC9EC0EF0000E0C6E000E5C
:101C40000D6E000E0E6E000E0F6EEEEC0EF0040E1A
:101C50001200080E4B6010D02C0E3824D96EDA6AB0
:101C6000000EDA22DF50AD6E382A070E386402D03B
:101C7000000E386E4B2A12009D98120026EC0FF0D1
:101C8000F2944CC0D6FF49504A10D8B4120001D883
:101C900012000500FA6E4950FD6E4A50FE6EFF6A52
:101CA000FA5012003CA412005DEC0CF00009D8A41C
:101CB00009D0040E04EC0FF0010E3A6E000E3D6EDA
:101CC0003C9412000EEC09F01200000E896E000E1A
:101CD0008A6E000E8B6EFC0E926E9368BF0E946E31
:101CE000130E7E6E1F0E7F6E000E7C6EF18E120044
:101CF0003D503E5CD8A00AD08C0E3D24D96EDA6AE5
:101D0000000EDA22DF50AD6E3D2A1200000E3A6E50
:101D10009D881200000ED76EE10ED66EE10E4C6E5D
:101D2000F294F28A880E076E1F0E086E46EC0FF0D2
:101D3000570ED56E1200010E076E000183B30AD054
:101D400083957C69BCEC0FF0B8EC0FF0BAEC0FF0A7
:101D500082C007F007501200840E3724D96EDA6A69
:101D6000000EDA22AECFDFFF372A070E376402D02B
:101D7000000E376E352A1200A6EC0FF0FAEC0EF0CA
:101D800065EC0EF04BEC0FF08AEC0EF029EC0BF04A
:101D90001200000183A7120007C07DF008C07EF08A
:101DA00009C07FF00AC080F0839712000CC007F0D2
:101DB0000DC008F00EC009F00FC00AF0020E9CEC36
:101DC0000BF01200C6BA1200000EC76E080EC66EE7
:101DD000000EC56E130EC86EC68A12000CC007F046
:101DE0000DC008F00EC009F00FC00AF0000E9CEC08
:101DF0000BF01200000EC76E080EC66E000EC56E08
:101E0000130EC86EC69A1200136E00018D8F13C098
:101E10008EF0030E44EC0DF0120004D094EC0FF0A1
:101E200030EC0CF0000183A31200F8D7000183818D
:101E30007C517C258DEC0FF0030E12000001838194
:101E4000D8807C358DEC0FF0050E12003C90C2EC72
:101E50000FF03CA212003C923C84120000018393DC
:101E6000000E826F0E0E120000018391ACEC0FF099
:101E7000040E120000018393000E826F0E0E1200FA
:101E8000C5AC02D0010E1200000E120007C049F0CE
:101E900008C04AF01200600ED36E000E9B6E120056
:101EA00007C047F008C048F0120007C045F008C05E
:101EB00046F0120007C0DFF008C0E0F0120007C0D3
:101EC00043F008C044F0120007C0DDF008C0DEF0A7
:101ED0001200000EBBEC0DF01200010EBBEC0DF079
:101EE00012009AEC0FF0090E12009AEC0FF00A0E95
:101EF000120097EC0FF0050E1200B2EC0FF0000E7E
:101F00001200B4EC0FF0010E1200B4EC0FF0020E50
:101F10001200B4EC0FF0010E1200076E07C0C9FFEB
:101F200012001C00003064C09EB61200FDD7C59A96
:101F3000C5881200C58AC58812004CC0D6FF1200A1
:101F4000AB98AB881200ACEC0EF01200D09E1200E1
:101F50009E861200C9501200C5861200050E12009E
:101F6000010E1200C5841200C5821200C580120045
:101F70009D961200C69A12009E9612009D9812001D
:0C1F8000D58E1200D59E12001200120037
:020000040020DA
:08000000FFFFFFFFFFFFFFFF00
:020000040030CA
:0E000000FF081F1EFF8B81FF0FC00FE00F4097
:00000001FF
